:020000040000FA
:100000000C945C000C946E000C946E000C946E00CA
:100010000C946E000C946E000C946E000C946E00A8
:100020000C946E000C946E000C946E000C946E0098
:100030000C946E000C946E000C946E000C946E0088
:100040000C94F9000C946E000C946E000C946E00ED
:100050000C946E000C946E000C946E000C946E0068
:100060000C946E000C946E00000000080002010069
:100070000003040700000000000000000000000072
:10008000250028002B0000000000240027002A0083
:10009000040404040404040402020202020203032E
:1000A0000303030301020408102040800102040836
:1000B000102001020408102011241FBECFEFD8E049
:1000C000DEBFCDBF21E0A0E0B1E001C01D92A930AC
:1000D000B207E1F70E9443010C94D0030C94000096
:1000E000EFEAF0E02491EBE9F0E08491882399F0C5
:1000F00090E0880F991FFC01EA57FF4FA591B4913A
:10010000FC01E458FF4F859194918FB7F894EC91DE
:10011000E22BEC938FBF0895E3E7F0E02491EFEA40
:10012000F0E09491EBE9F0E0E491EE23C9F02223B2
:1001300039F0233001F1A8F4213019F1223029F1EE
:10014000F0E0EE0FFF1FE458FF4FA591B4912FB7D9
:10015000F894EC91811126C090959E239C932FBF1B
:1001600008952730A9F02830C9F0243049F72091AC
:1001700080002F7D03C0209180002F772093800086
:10018000DFCF24B52F7724BDDBCF24B52F7DFBCF68
:100190002091B0002F772093B000D2CF2091B000F3
:1001A0002F7DF9CF9E2BDACF3FB7F89480910501D0
:1001B00090910601A0910701B091080126B5A89B76
:1001C00005C02F3F19F00196A11DB11D3FBFBA2FE9
:1001D000A92F982F8827BC01CD01620F711D811DA9
:1001E000911D42E0660F771F881F991F4A95D1F72E
:1001F00008951F920F920FB60F9211242F933F93E1
:100200008F939F93AF93BF938091010190910201CF
:10021000A0910301B09104013091000123E0230F6C
:100220002D3758F50196A11DB11D20930001809333
:10023000010190930201A0930301B0930401809106
:10024000050190910601A0910701B0910801019666
:10025000A11DB11D8093050190930601A093070194
:10026000B0930801BF91AF919F918F913F912F91D2
:100270000F900FBE0F901F90189526E8230F02963F
:10028000A11DB11DD2CF789484B5826084BD84B5A0
:10029000816084BD85B5826085BD85B5816085BD81
:1002A00080916E00816080936E0010928100809139
:1002B00081008260809381008091810081608093C1
:1002C0008100809180008160809380008091B100E6
:1002D00084608093B1008091B00081608093B00011
:1002E00080917A00846080937A0080917A008260A5
:1002F00080937A0080917A00816080937A00809167
:100300007A00806880937A001092C1000E94700089
:1003100090E4992E03E710E0C0E0D0E090927C00DA
:1003200080917A00806480937A0080917A0086FDC3
:10033000FCCF6091780070917900072E000C880B3B
:10034000990B0E94D70220E030EC4FE754E40E9462
:100350002D0220E030E04FE753E40E9463030E9447
:100360009F026B015B010E947000C114D10469F50A
:1003700080E00E948C000E94D4002B013C0184E6A6
:10038000C82ED12CE12CF12C0E94D40064197509DF
:1003900086099709683E734081059105A8F321E01D
:1003A000C21AD108E108F10888EE480E83E0581E11
:1003B000611C711CC114D104E104F10429F72097D8
:1003C00009F4ACCF0E940000A9CF2FEFC216D104D0
:1003D00011F481E0CECFF8018491833021F148F40B
:1003E0008130B9F08230D1F0F0E8AF16B1048CF76B
:1003F000BFCF873011F1883041F18430A9F7809167
:100400008000806280938000D0928B00C0928A002E
:10041000B2CF84B5806884BDC7BCADCF84B58062DF
:1004200084BDC8BCA8CF8091800080688093800084
:10043000D0928900C09288009ECF8091B0008068E1
:100440008093B000C092B30096CF8091B0008062DC
:100450008093B000C092B4008ECF0E9441020C94F1
:1004600029030E94220358F00E941B0340F029F444
:100470005F3F29F00C94120351110C945D030C940E
:1004800018030E943A0368F39923B1F3552391F3BB
:10049000951B550BBB27AA2762177307840738F0F3
:1004A0009F5F5F4F220F331F441FAA1FA9F335D050
:1004B0000E2E3AF0E0E832D091505040E695001C04
:1004C000CAF72BD0FE2F29D0660F771F881FBB1FBE
:1004D000261737074807AB07B0E809F0BB0B802D9C
:1004E000BF01FF2793585F4F3AF09E3F510578F0C8
:1004F0000C9412030C945D035F3FE4F3983ED4F335
:10050000869577956795B795F7959F5FC9F7880F9B
:10051000911D9695879597F90895E1E0660F771FED
:10052000881FBB1F621773078407BA0720F0621B7E
:10053000730B840BBA0BEE1F88F7E09508950E94A9
:10054000A6026894B1110C945D0308950E944203C1
:1005500088F09F5798F0B92F9927B751B0F0E1F084
:10056000660F771F881F991F1AF0BA95C9F714C034
:10057000B13091F00E945C03B1E008950C945C03EB
:10058000672F782F8827B85F39F0B93FCCF386956D
:1005900077956795B395D9F73EF4909580957095CA
:1005A00061957F4F8F4F9F4F0895E89409C097FB47
:1005B0003EF490958095709561957F4F8F4F9F4F3A
:1005C0009923A9F0F92F96E9BB279395F69587957E
:1005D00077956795B795F111F8CFFAF4BB0F11F441
:1005E00060FF1BC06F5F7F4F8F4F9F4F16C08823E8
:1005F00011F096E911C0772321F09EE8872F762F1E
:1006000005C0662371F096E8862F70E060E02AF05E
:100610009A95660F771F881FDAF7880F969587954A
:1006200097F9089597F99F6780E870E060E0089572
:100630009FEF80EC089500240A94161617061806FA
:100640000906089500240A941216130614060506D6
:100650000895092E0394000C11F4882352F0BB0F67
:1006600040F4BF2B11F460FF04C06F5F7F4F8F4FCA
:100670009F4F089557FD9058440F551F59F05F3F05
:1006800071F04795880F97FB991F61F09F3F79F0B4
:1006900087950895121613061406551FF2CF469536
:1006A000F1DF08C0161617061806991FF1CF8695B8
:1006B0007105610508940895E894BB27662777279C
:1006C000CB0197F908950E9476030C9429030E94A8
:1006D0001B0338F00E94220320F0952311F00C94A4
:1006E00012030C94180311240C945D030E943A0326
:1006F00070F3959FC1F3950F50E0551F629FF00175
:10070000729FBB27F00DB11D639FAA27F00DB11D8D
:10071000AA1F649F6627B00DA11D661F829F222716
:10072000B00DA11D621F739FB00DA11D621F839F9D
:10073000A00D611D221F749F3327A00D611D231F73
:10074000849F600D211D822F762F6A2F11249F57C1
:1007500050409AF0F1F088234AF0EE0FFF1FBB1FC4
:10076000661F771F881F91505040A9F79E3F510583
:1007700080F00C9412030C945D035F3FE4F3983E09
:10078000D4F3869577956795B795F795E7959F5F2D
:10079000C1F7FE2B880F911D9695879597F90895BF
:0407A000F894FFCFFB
:107800000C94343C0C94513C0C94513C0C94513CE1
:107810000C94513C0C94513C0C94513C0C94513CB4
:107820000C94513C0C94513C0C94513C0C94513CA4
:107830000C94513C0C94513C0C94513C0C94513C94
:107840000C94513C0C94513C0C94513C0C94513C84
:107850000C94513C0C94513C0C94513C0C94513C74
:107860000C94513C0C94513C11241FBECFEFD8E036
:10787000DEBFCDBF11E0A0E0B1E0ECE9FFE702C060
:1078800005900D92A230B107D9F712E0A2E0B1E065
:1078900001C01D92AD30B107E1F70E942D3D0C945F
:1078A000CC3F0C94003C982F959595959595959582
:1078B000905D8F708A307CF0282F295A8091C0000B
:1078C00085FFFCCF9093C6008091C00085FFFCCF60
:1078D0002093C6000895282F205DF0CF982F809127
:1078E000C00085FFFCCF9093C6000895EF92FF92F1
:1078F0000F931F93EE24FF2487018091C00087FD22
:1079000017C00894E11CF11C011D111D81E4E8164B
:1079100082E4F8068FE0080780E0180770F3E09132
:107920000401F091050109958091C00087FFE9CF1E
:107930008091C6001F910F91FF90EF9008950E94D3
:10794000763C982F8091C00085FFFCCF9093C600B5
:1079500091362CF490330CF09053892F089597555D
:10796000892F08951F930E949F3C182F0E949F3CCF
:107970001295107F810F1F9108951F93182F882350
:1079800021F00E94763C1150E1F71F9108951F935A
:10799000182F0E94763C803249F0809103018F5F5E
:1079A000809303018530C1F01F9108958091C0003C
:1079B00085FFFCCF84E18093C6008091C00085FFE5
:1079C000FCCF1093C6008091C00085FFFCCF80E102
:1079D0008093C6001F910895E0910401F091050184
:1079E00009951F9108950E94763C803241F0809164
:1079F00003018F5F80930301853081F008958091AA
:107A0000C00085FFFCCF84E18093C6008091C00058
:107A100085FFFCCF80E18093C6000895E0910401CA
:107A2000F09105010995089540E951E08823A1F0FE
:107A30002D9A28EE33E0FA013197F1F721503040CA
:107A4000D1F72D9828EE33E0FA013197F1F7215064
:107A50003040D1F7815061F708953F924F925F9285
:107A60006F927F928F929F92AF92BF92CF92DF924E
:107A7000EF92FF920F931F93CF93DF93000080E16B
:107A80008093C4001092C50088E18093C10086E015
:107A90008093C2005098589A259A81E00E94143D24
:107AA00024E1F22E9EE1E92E85E9D82E0FE0C02ECA
:107AB00010E1B12EAA24A394B1E49B2EA6E58A2E50
:107AC000F2E57F2EE0E26E2E79E4572E63E5462E36
:107AD00050E5352E0E94763C8033B1F18133B9F107
:107AE000803409F46FC0813409F476C0823409F41B
:107AF00085C0853409F488C0803531F1823521F1A3
:107B0000813511F1853509F485C0863509F48DC0BC
:107B1000843609F496C0843709F403C1853709F423
:107B200072C1863709F466C0809103018F5F80932C
:107B30000301853079F6E0910401F0910501099582
:107B40000E94763C803351F60E94F33CC3CF0E94E2
:107B5000763C803249F78091C00085FFFCCFF092DF
:107B6000C6008091C00085FFFCCF9092C600809136
:107B7000C00085FFFCCF8092C6008091C00085FFC9
:107B8000FCCF7092C6008091C00085FFFCCF609250
:107B9000C6008091C00085FFFCCF5092C600809146
:107BA000C00085FFFCCF4092C6008091C00085FFD9
:107BB000FCCF3092C6008091C00085FFFCCFB09210
:107BC000C60088CF0E94763C863808F4BDCF0E945C
:107BD000763C0E94F33C7ECF0E94763C803809F4CC
:107BE0009CC0813809F40BC1823809F43CC1883942
:107BF00009F48FC080E00E94C73C6CCF84E10E94F2
:107C0000BD3C0E94F33C66CF85E00E94BD3C0E94D3
:107C1000F33C60CF0E94763C809306010E94763C44
:107C2000809307010E94F33C55CF0E94763C80333D
:107C300009F41DC183E00E94BD3C80E00E94C73C66
:107C400049CF0E94763C809309020E94763C809343
:107C5000080280910C028E7F80930C020E94763C79
:107C6000853409F415C18091080290910902892B8D
:107C700089F000E010E00E94763CF801E85FFE4FDA
:107C800080830F5F1F4F80910802909109020817AF
:107C9000190788F30E94763C803209F045CF809125
:107CA0000C0280FF01C16091060170910701660F0F
:107CB000771F7093070160930601A0910802B091AD
:107CC00009021097C9F0E8E0F1E09B01AD014E0F09
:107CD0005F1FF999FECF32BD21BD819180BDFA9A17
:107CE000F99A2F5F3F4FE417F50799F76A0F7B1F4B
:107CF00070930701609306018091C00085FFFCCF5F
:107D0000F092C6008091C00085FFFCCFB092C60003
:107D1000E1CE83E00E94C73CDDCE82E00E94C73CFA
:107D2000D9CE0E94763C809309020E94763C8093D3
:107D300008028091060190910701880F991F909386
:107D40000701809306010E94763C853409F4A6C0A1
:107D500080910C028E7F80930C020E94763C8032D0
:107D600009F0B8CE8091C00085FFFCCFF092C6002C
:107D7000609108027091090261157105B9F140E046
:107D800050E080910C02A82FA170B82FB27011C0E2
:107D9000BB2309F45CC0E0910601F0910701319624
:107DA000F0930701E09306014F5F5F4F46175707B7
:107DB000E8F4AA2369F3F999FECF209106013091E6
:107DC000070132BD21BDF89A90B58091C00085FFB2
:107DD000FCCF9093C6002F5F3F4F30930701209355
:107DE00006014F5F5F4F4617570718F38091C00099
:107DF00085FDE5CE8091C00085FFF8CFE0CE81E023
:107E00000E94C73C67CE0E94763C803209F08CCE3F
:107E10008091C00085FFFCCFF092C6008091C00029
:107E200085FFFCCFE092C6008091C00085FFFCCFAB
:107E3000D092C6008091C00085FFFCCFC092C600E2
:107E40008091C00085FFFCCFB092C60043CEE09188
:107E50000601F091070194918091C00085FFFCCF4D
:107E60009093C6009CCF80E10E94C73C33CE0E9415
:107E7000763C0E94763C182F0E94763C112309F430
:107E800083C0113009F484C08FE00E94C73C22CE29
:107E900080910C02816080930C02E5CE80910C02EF
:107EA000816080930C0259CF809107018823880F4D
:107EB000880B8A2180930B02809106019091070123
:107EC000880F991F90930701809306018091080203
:107ED00080FF09C080910802909109020196909359
:107EE000090280930802F894F999FECF1127E091D6
:107EF0000601F0910701C8E0D1E08091080290915D
:107F00000902103091F40091570001700130D9F34B
:107F100003E000935700E89500915700017001308D
:107F2000D9F301E100935700E89509901990009169
:107F3000570001700130D9F301E000935700E89534
:107F40001395103498F011270091570001700130FB
:107F5000D9F305E000935700E895009157000170B0
:107F60000130D9F301E100935700E895329602976A
:107F700009F0C7CF103011F00296E5CF112480919F
:107F8000C00085FFB9CEBCCE8EE10E94C73CA2CD19
:0E7F900085E90E94C73C9ECDF894FFCF80008B
:00000001FF
