:100000000C946B000C947D000C947D000C947D008E
:100010000C947D000C947D000C947D000C947D006C
:100020000C947D000C947D000C947D000C947D005C
:100030000C947D000C947D000C947D000C947D004C
:100040000C946B010C947D000C947D000C947D004D
:100050000C947D000C947D000C947D000C947D002C
:100060000C947D000C947D0005A84CCDB2D44EB903
:100070003836A9020C50B9918688083CA6AAAA2A4B
:10008000BE000000803F00000008000201000003E5
:100090000407000000000000000000000000250030
:1000A00028002B0000000000240027002A00040480
:1000B0000404040404040202020202020303030310
:1000C00003030102040810204080010204081020EC
:1000D00001020408102011241FBECFEFD8E0DEBFBC
:1000E000CDBF22E0A0E0B1E001C01D92AB30B2076D
:1000F000E1F70E94B5010C944F050C94000090E0CC
:10010000FC01EE53FF4F249182559F4FFC018491D7
:10011000882399F090E0880F991FFC01EC55FF4F60
:10012000A591B491FC01E656FF4F859194918FB74C
:10013000F894EC91E22BEC938FBF089590E0FC01D2
:10014000EA57FF4F2491FC01EE53FF4F3491FC011D
:10015000E255FF4FE491EE23C9F0222339F023301A
:1001600001F1A8F4213019F1223029F1F0E0EE0F6D
:10017000FF1FE656FF4FA591B4918FB7F894EC910D
:10018000611126C030953E233C938FBF08952730E0
:10019000A9F02830C9F0243049F7809180008F7D84
:1001A00003C0809180008F7780938000DFCF84B57B
:1001B0008F7784BDDBCF84B58F7DFBCF8091B0007E
:1001C0008F778093B000D2CF8091B0008F7DF9CF30
:1001D0003E2BDACF1F93CF93DF93182FEB010E94B2
:1001E0007F00209739F460E0812FDF91CF911F913C
:1001F0000C949E00CF3FD10511F461E0F5CFE12FC3
:10020000F0E0EA57FF4FE491E33031F140F4E130A0
:10021000B1F0E230E1F0C038D1057CF7E4CFE7304F
:1002200029F1E83059F1E430B1F780918000806223
:1002300080938000D0938B00C0938A0004C084B563
:10024000806884BDC7BDDF91CF911F91089584B5AB
:10025000806284BDC8BDF7CF8091800080688093A4
:100260008000D0938900C0938800EDCF8091B000CA
:1002700080688093B000C093B300E5CF8091B00058
:1002800080628093B000C093B400DDCF3FB7F89494
:100290008091050190910601A0910701B09108019C
:1002A00026B5A89B05C02F3F19F00196A11DB11DD1
:1002B0003FBFBA2FA92F982F8827BC01CD01620F0D
:1002C000711D811D911D42E0660F771F881F991FC8
:1002D0004A95D1F708951F920F920FB60F921124ED
:1002E0002F933F938F939F93AF93BF93809101017F
:1002F00090910201A0910301B0910401309100019D
:1003000023E0230F2D3758F50196A11DB11D209331
:1003100000018093010190930201A0930301B09327
:1003200004018091050190910601A0910701B0910F
:1003300008010196A11DB11D80930501909306014E
:10034000A0930701B0930801BF91AF919F918F9146
:100350003F912F910F900FBE0F901F90189526E898
:10036000230F0296A11DB11DD2CF789484B582606F
:1003700084BD84B5816084BD85B5826085BD85B549
:10038000816085BD80916E00816080936E001092C7
:100390008100809181008260809381008091810042
:1003A00081608093810080918000816080938000D3
:1003B0008091B10084608093B1008091B000816031
:1003C0008093B00080917A00846080937A0080915D
:1003D0007A00826080937A0080917A0081608093B5
:1003E0007A0080917A00806880937A001092C10030
:1003F0008BE00E947F008DE00E947F008CE00E94D5
:100400007F008AE00E947F0089E00E947F0088E0F0
:100410000E947F0009E011E0D0E0C0E0BE010D2E97
:10042000000C880B990B0E949E032BED3FE049ECDA
:1004300050E40E942A0420E030E040E85BE30E94A0
:100440002A040E94970420E030E04EEF52E40E941C
:100450002A0420E030E040E053E40E94FA020E94C7
:1004600066036F3F710519F014F06FEF70E077FDD0
:1004700060E0F80161938F012196C115F1E0DF077B
:1004800069F660E08DE00E949E0060E08CE00E94D2
:100490009E0060E089E00E949E0060E088E00E948B
:1004A0009E0070E060E08BE00E94EA0070E060E097
:1004B0008AE00E94EA00E12CFF24F39440E0C42E7D
:1004C00040E0D42E8091090290910A02FC01E75F7E
:1004D000FE4F208130E0805C9F4FB7010E942705CE
:1004E000FC01E75FFE4FA080B12C89010058110983
:1004F00017FF03C0119501951109E501C058D109F5
:10050000D7FF03C0D195C195D109203831050CF42E
:1005100064C061E08DE00E949E0060E08CE00E947B
:100520009E0020E8A216B1040CF45DC061E089E0F1
:100530000E949E0060E088E00E949E00B801660F65
:10054000771FCC0FDD1F611581E0780711F46FEF85
:1005500070E0C115E1E0DE0711F4CFEFD0E08BE0F1
:100560000E94EA00BE018AE00E94EA00809109022E
:1005700090910A020196B7010E94270590930A0202
:10058000809309020E9446012B013C0184E6882EDB
:10059000912CA12CB12C0E94460164197509860981
:1005A0009709683E734081059105A8F3F1E08F1A21
:1005B0009108A108B10828EE420E23E0521E611CEA
:1005C000711C81149104A104B10429F7C114D10450
:1005D00009F478CF0E94000075CF60E08DE00E94A2
:1005E0009E0061E09BCF60E089E00E949E0061E098
:1005F000A2CF5058BB27AA270E9411030C94F003E6
:100600000E94E20338F00E94E90320F039F49F3F92
:1006100019F426F40C94DF030EF4E095E7FB0C9438
:10062000D903E92F0E94010458F3BA176207730730
:100630008407950720F079F4A6F50C9423040EF4B2
:10064000E0950B2EBA2FA02D0B01B90190010C01E2
:10065000CA01A0011124FF27591B99F0593F50F4FA
:10066000503E68F11A16F040A22F232F342F442752
:10067000585FF3CF469537952795A795F04053954A
:10068000C9F77EF41F16BA0B620B730B840BBAF01A
:100690009150A1F0FF0FBB1F661F771F881FC2F785
:1006A0000EC0BA0F621F731F841F48F48795779599
:1006B0006795B795F7959E3F08F0B0CF9395880F53
:1006C00008F09927EE0F9795879508950E946D037E
:1006D0006894B1110C94240408950E94090488F0D0
:1006E0009F5798F0B92F9927B751B0F0E1F0660FF6
:1006F000771F881F991F1AF0BA95C9F714C0B13037
:1007000091F00E942304B1E008950C942304672F14
:10071000782F8827B85F39F0B93FCCF38695779565
:100720006795B395D9F73EF490958095709561954E
:100730007F4F8F4F9F4F0895E89409C097FB3EF479
:1007400090958095709561957F4F8F4F9F4F99231E
:10075000A9F0F92F96E9BB279395F695879577959C
:100760006795B795F111F8CFFAF4BB0F11F460FF5C
:100770001BC06F5F7F4F8F4F9F4F16C0882311F0B4
:1007800096E911C0772321F09EE8872F762F05C0C8
:10079000662371F096E8862F70E060E02AF09A9563
:1007A000660F771F881FDAF7880F9695879597F958
:1007B000089597F99F6780E870E060E008959FEFE3
:1007C00080EC089500240A941616170618060906E8
:1007D000089500240A9412161306140605060895B7
:1007E000092E0394000C11F4882352F0BB0F40F43F
:1007F000BF2B11F460FF04C06F5F7F4F8F4F9F4F7F
:10080000089557FD9058440F551F59F05F3F71F000
:100810004795880F97FB991F61F09F3F79F0879567
:100820000895121613061406551FF2CF4695F1DFF0
:1008300008C0161617061806991FF1CF8695710580
:10084000610508940895E894BB2766277727CB01B4
:1008500097F908950E943D040C94F0030E94E2036E
:1008600038F00E94E90320F0952311F00C94D9038D
:100870000C94DF0311240C9424040E94010470F3EF
:10088000959FC1F3950F50E0551F629FF001729F35
:10089000BB27F00DB11D639FAA27F00DB11DAA1F44
:1008A000649F6627B00DA11D661F829F2227B00D91
:1008B000A11D621F739FB00DA11D621F839FA00D1C
:1008C000611D221F749F3327A00D611D231F849F6C
:1008D000600D211D822F762F6A2F11249F575040C3
:1008E0009AF0F1F088234AF0EE0FFF1FBB1F661F3E
:1008F000771F881F91505040A9F79E3F510580F007
:100900000C94D9030C9424045F3FE4F3983ED4F391
:10091000869577956795B795F795E7959F5FC1F7AA
:10092000FE2B880F911D9695879597F908959F93B3
:100930000E94A1040F9007FCEE5F0C94CA040C9473
:10094000DF030E940904D8F3E894E0E0BB279F5737
:10095000F0F02AED3FE049EC06C0EE0FBB0F661F3A
:10096000771F881F28F0B23A62077307840728F0C0
:10097000B25A620B730B840BE3959A9572F7803829
:1009800030F49A95BB0F661F771F881FD2F79048E7
:100990000C94E004EF93E0FF07C0A2EA2AED3FE0E9
:1009A00049EC5FEB0E9411030E94F0030F90039447
:1009B00001FC9058E8E6F0E00C94EC049F3F31F025
:1009C000915020F4879577956795B795880F911D7D
:1009D0009695879597F908959F938F937F936F933B
:1009E000FF93EF939B01AC010E942A04EF91FF91CA
:1009F0000E9400052F913F914F915F910C942A0422
:100A0000DF93CF931F930F93FF92EF92DF927B01BF
:100A10008C01689406C0DA2EEF010E943D04FE01AD
:100A2000E894A5912591359145915591A6F3EF0153
:100A30000E941103FE019701A801DA9469F7DF9083
:100A4000EF90FF900F911F91CF91DF91089597FB49
:100A5000072E16F4009407D077FD09D00E943B05BD
:100A600007FC05D03EF4909581959F4F08957095B1
:100A700061957F4F0895AA1BBB1B51E107C0AA1FB8
:100A8000BB1FA617B70710F0A61BB70B881F991F2F
:100A90005A95A9F780959095BC01CD010895F894D9
:020AA000FFCF86
:00000001FF
