:100000000C94D8020C9400030C9400030C9400038D
:100010000C9400030C9400030C9400030C94000354
:100020000C9400030C9400030C9400030C94000344
:100030000C9400030C9400030C9400030C94000334
:100040000C9462070C9400030C9430070C940A077C
:100050000C9400030C9400030C9400030C94000314
:100060000C94AC070C94000300000000250028004D
:100070002B00040404040404040402020202020229
:10008000030303030303010204081020408001025C
:1000900004081020010204081020000000080002DB
:1000A0000100000304070000000000000000000041
:1000B0000000003E5B4F5B3E3E6B4F6B3E1C3E7C48
:1000C0003E1C183C7E3C181C577D571C1C5E7F5EF6
:1000D0001C00183C1800FFE7C3E7FF0018241800B5
:1000E000FFE7DBE7FF30483A060E2629792926404C
:1000F0007F050507407F05253F5A3CE73C5A7F3E78
:100100001C1C08081C1C3E7F14227F22145F5F0009
:100110005F5F06097F017F006689956A60606060A5
:100120006094A2FFA29408047E040810207E201090
:1001300008082A1C08081C2A08081E101010100C99
:100140001E0C1E0C30383E3830060E3E0E060000E7
:1001500000000000005F00000007000700147F148B
:100160007F14242A7F2A12231308646236495620FA
:10017000500008070300001C2241000041221C001F
:100180002A1C7F1C2A08083E0808008070300008DE
:1001900008080808000060600020100804023E51B2
:1001A00049453E00427F4000724949494621414944
:1001B0004D331814127F1027454545393C4A4949AB
:1001C0003141211109073649494936464949291E15
:1001D0000000140000004034000000081422411404
:1001E00014141414004122140802015909063E4156
:1001F0005D594E7C1211127C7F494949363E41417E
:1002000041227F4141413E7F494949417F090909D6
:10021000013E414151737F0808087F00417F410042
:100220002040413F017F081422417F404040407FF1
:10023000021C027F7F0408107F3E4141413E7F093E
:100240000909063E4151215E7F091929462649497F
:10025000493203017F01033F4040403F1F204020BF
:100260001F3F4038403F63140814630304780403BD
:100270006159494D43007F4141410204081020006B
:100280004141417F040201020440404040400003DC
:1002900007080020545478407F28444438384444A8
:1002A0004428384444287F385454541800087E09A0
:1002B0000218A4A49C787F0804047800447D4000C0
:1002C0002040403D007F1028440000417F40007CDA
:1002D000047804787C080404783844444438FC18D2
:1002E00024241818242418FC7C08040408485454B6
:1002F000542404043F44243C4040207C1C204020E3
:100300001C3C4030403C44281028444C9090907C49
:100310004464544C4400083641000000770000005B
:100320004136080002010204023C2623263C1EA19D
:10033000A161123A4040207A3854545559215555FC
:1003400079412254547842215554784020545579AB
:10035000400C1E527212395555555939545454593E
:1003600039555454580000457C410002457D4200F7
:1003700001457C407D1211127DF0282528F07C5427
:100380005545002054547C547C0A097F4932494920
:1003900049323A4444443A324A4848303A41412189
:1003A0007A3A42402078009DA0A07D3D4242423DE5
:1003B0003D4040403D3C24FF2424487E4943662B79
:1003C0002FFC2F2BFF0929F620C0887E090320541B
:1003D0005479410000447D413048484A3238404019
:1003E000227A007A0A0A727D0D19317D2629292F79
:1003F00028262929292630484D4020380808080891
:1004000008080808382F10C8ACBA2F102834FA0092
:10041000007B000008142A142222142A1408550014
:10042000550055AA55AA55AAFF55FF55FF000000D3
:10043000FF00101010FF00141414FF001010FF0034
:10044000FF1010F010F0141414FC001414F700FF47
:100450000000FF00FF1414F404FC141417101F1004
:10046000101F101F1414141F00101010F0000000B3
:10047000001F101010101F10101010F010000000BE
:10048000FF101010101010101010FF10000000FFCF
:10049000140000FF00FF00001F10170000FC04F410
:1004A00014141710171414F404F40000FF00F714C8
:1004B000141414141414F700F7141414171410104F
:1004C0001F101F141414F4141010F010F000001F6B
:1004D000101F0000001F14000000FC140000F010AA
:1004E000F01010FF10FF141414FF141010101F0050
:1004F000000000F010FFFFFFFFFFF0F0F0F0F0FF52
:10050000FFFF0000000000FFFF0F0F0F0F0F384428
:10051000443844FC4A4A4A347E02020606027E02FD
:100520007E0263554941633844443C04407E201EAA
:100530002006027E020299A5E7A5991C2A492A1CD9
:100540004C7201724C304A4D4D303048784830BCC6
:10055000625A463D3E494949007E0101017E2A2AF0
:100560002A2A2A44445F444440514A444040444A71
:1005700051400000FF0103E080FF000008086B6BA2
:10058000083612362436060F090F06000018180028
:1005900000001010003040FF0101001F01011E008B
:1005A000191D1712003C3C3C3C0000000000CB0829
:1005B00011241FBECFEFD8E0DEBFCDBF11E0A0E019
:1005C000B1E0E0E3FBE102C005900D92AE32B1076D
:1005D000D9F723E0AEE2B1E001C01D92AC31B20721
:1005E000E1F712E0C8EDD2E004C02197FE010E94BD
:1005F000B80AC73DD107C9F70E9404090C94960DAB
:100600000C94000008950895AF92BF92CF92DF92AC
:10061000EF92FF920F931F93CF93DF936C017B01B7
:100620008B01040F151FEB015E01AE18BF08C01748
:10063000D10759F06991D601ED91FC910190F081BB
:10064000E02DC6010995892B79F7C501DF91CF917E
:100650001F910F91FF90EF90DF90CF90BF90AF90E0
:100660000895FC01538D448D252F30E0842F90E0B8
:10067000821B930B541710F0CF960895019708959D
:10068000FC01918D828D981761F0A28DAE0FBF2F66
:10069000B11D5D968C91928D9F5F9F73928F90E0BC
:1006A00008958FEF9FEF0895FC01918D828D98172B
:1006B00031F0828DE80FF11D858D90E008958FEF68
:1006C0009FEF0895FC01918D228D892F90E0805C31
:1006D0009F4F821B91098F739927089583E792E0BA
:1006E0000E94620321E0892B09F420E0822F089503
:1006F00080E090E0892B29F00E946E0381110C9418
:1007000000000895FC01A48DA80FB92FB11DA35AB4
:10071000BF4F2C91848D90E001968F739927848F21
:10072000A689B7892C93A089B1898C918370806444
:100730008C93938D848D981306C00288F389E02DE5
:1007400080818F7D80830895EF92FF920F931F9396
:10075000CF93DF93EC0181E0888F9B8D8C8D981374
:100760001AC0E889F989808185FF15C09FB7F89480
:10077000EE89FF896083E889F989808183708064CC
:1007800080839FBF81E090E0DF91CF911F910F9117
:10079000FF90EF900895F62E0B8D10E00F5F1F4F26
:1007A0000F731127E02E8C8D8E110CC00FB607FC35
:1007B000FACFE889F989808185FFF5CFCE010E94C3
:1007C0008203F1CFEB8DEC0FFD2FF11DE35AFF4FAC
:1007D000F0829FB7F8940B8FEA89FB898081806251
:1007E000CFCFCF93DF93EC01888D8823B9F0AA890E
:1007F000BB89E889F9898C9185FD03C0808186FDDC
:100800000DC00FB607FCF7CF8C9185FFF2CF80812A
:1008100085FFEDCFCE010E948203E9CFDF91CF911A
:10082000089590E0FC01E656FF4F2491FC01EA5741
:10083000FF4F3491FC01EE58FF4FE491EE23C9F0D5
:10084000222339F0233001F1A8F4213019F12230AC
:1008500029F1F0E0EE0FFF1FE859FF4FA591B49189
:100860008FB7F894EC91611126C030953E233C93EC
:100870008FBF08952730A9F02830C9F0243049F7F8
:10088000809180008F7D03C0809180008F7780935E
:100890008000DFCF84B58F7784BDDBCF84B58F7DBB
:1008A000FBCF8091B0008F778093B000D2CF809142
:1008B000B0008F7DF9CF3E2BDACF3FB7F89480910F
:1008C000930190919401A0919501B091960126B564
:1008D000A89B05C02F3F19F00196A11DB11D3FBF78
:1008E000BA2FA92F982F8827BC01CD01620F711D47
:1008F000811D911D42E0660F771F881F991F4A9541
:10090000D1F7089520916F01260F3327331F21322D
:100910003105ECF420914902FC0190E080E02430A4
:1009200069F082E00895A0916F012191AC01415BD3
:100930005E4FA40FB52FB11D2C930196861798F327
:1009400080916F01680F60936F0180E0089581E0EE
:1009500008951092490281E0809348021092230288
:1009600061E082E10E94110461E083E10E941104D0
:10097000E9EBF0E080818E7F808380818D7F8083B2
:1009800088E48093B80085E48093BC000895CF93F9
:10099000DF9391E090934E018823B9F0C091B800A5
:1009A000D091BA008091BC008A7B8093BC0060E04B
:1009B00082E10E94110460E083E10E9411040E9420
:1009C000A904D093BA00C093B800DF91CF910895E5
:1009D000CF92DF92EF92FF920F931F93CF93DF930B
:1009E000D091720281E0D13208F09CC0C0917102B6
:1009F0000E945D046B017C018091490281116CC0F1
:100A000082E08093490281E0809348028FEF8093D7
:100A1000470210924602D0934502A1E5B2E0E5E21A
:100A2000F2E080E0D8138DC010922402809124025D
:100A3000CC0FC82BC093240280912302813009F08F
:100A400084C0109223020E945D046B017C0180919E
:100A500024028093BB0080914B0290914C02A091A4
:100A60004D02B0914E02892B8A2B8B2BA1F00E9454
:100A70005D0400914B0210914C0220914D02309187
:100A80004E026C197D098E099F0906171707280762
:100A9000390708F442C08091BC0083FDD8CF85ECB3
:100AA0008093BC000E945D046B017C01809149022F
:100AB000823009F44CC0809147028F3F09F469C02D
:100AC00080914702803209F466C0809147028033EA
:100AD00009F463C084E026C080914B0290914C02DF
:100AE000A0914D02B0914E02892B8A2B8B2B09F4D9
:100AF00083CF0E945D0400914B0210914C02209123
:100B00004D0230914E026C197D098E099F0906171E
:100B100017072807390708F06FCF80914A020E9413
:100B2000C70485E0109250021092720210924F0298
:100B3000DF91CF911F910F91FF90EF90DF90CF90B9
:100B400008959D9191938F5F6DCF85EEA9CF809190
:100B50004B0290914C02A0914D02B0914E02892B14
:100B60008A2B8B2B09F4A2CF0E945D0400914B02CB
:100B700010914C0220914D0230914E026C197D096A
:100B80008E099F09061717072807390708F08ECF27
:100B9000C4CF80E0C7CF82E0C5CF83E0C3CF089544
:100BA000E0919C0180919B01E81730F4F0E0E25D58
:100BB000FE4F808190E008958FEF9FEF0895909110
:100BC0009C0180919B012FEF3FEF981748F4E92F8C
:100BD000F0E0E25DFE4F208130E09F5F90939C014A
:100BE000C901089580919B0190919C01891B990BEB
:100BF0000895CF92DF92EF92FF920F931F93CF93BE
:100C0000DF937C01CB018A0120914F02222389F0DE
:100C1000EB016B01C40ED51ECC15DD0569F06991A1
:100C2000D701ED91FC910190F081E02DC70109956C
:100C3000F3CF642F0E948204C801DF91CF911F91EE
:100C40000F91FF90EF90DF90CF900895CF93DF93B7
:100C50001F92CDB7DEB7698320914F022223F9F0AE
:100C600020917202203258F021E030E0FC01338301
:100C7000228390E080E00F90DF91CF9108958091E2
:100C80005002E82FF0E0EF5AFD4F998190838F5F7B
:100C9000809350028093720281E090E0ECCF61E09B
:100CA000CE0101960E948204F7CF90E080E0089583
:100CB000CF93C82F81E080934F028CE38093710221
:100CC000109250021092720260E480E193E00E9460
:100CD00026066C2F80E193E00E942606CF910C94AB
:100CE000E804CF93C82F81E080934F028CE3809378
:100CF0007102109250021092720260E080E193E063
:100D00000E9426066C2F80E193E00E942606CF9178
:100D10000C94E804BF92CF92DF92EF92FF920F9370
:100D20001F93CF93DF93D82F6B01C0E085E0B82EDF
:100D3000F60101916F01002359F180EB8D0F0E94A4
:100D400071068C2F8F700E9471068C2F82958F7088
:100D5000805F0E9471060B9D80011124F12CE12C13
:100D600002551F4FF801EE0DFF1D84910E94580699
:100D7000FFEFEF1AFF0A85E0E816F10499F780E02B
:100D80000E945806CA5FCB3798F2DF5FC0E0D0CF31
:100D9000DF91CF911F910F91FF90EF90DF90CF9057
:100DA000BF90089585ED8093BC0080914B02909197
:100DB0004C02A0914D02B0914E020796A11DB11DAB
:100DC00023E0B695A795979587952A95D1F7209119
:100DD000BC0024FD03C010924902089540914B02CB
:100DE00050914C0260914D0270914E02452B462B62
:100DF000472B69F30097A105B10541F02AE22A9536
:100E0000F1F700C00197A109B109E1CF80914A0231
:100E10000C94C7041F920F920FB60F9211242F93B8
:100E20003F934F935F936F937F938F939F93AF9372
:100E3000BF93EF93FF9383E792E00E948203FF91B9
:100E4000EF91BF91AF919F918F917F916F915F9142
:100E50004F913F912F910F900FBE0F901F901895BB
:100E60001F920F920FB60F9211242F938F939F937F
:100E7000EF93FF93E0918302F09184028081E091EF
:100E80008902F0918A0282FD1BC0908180918C02C0
:100E90008F5F8F7320918D02821741F0E0918C0259
:100EA000F0E0ED58FD4F958F80938C02FF91EF910C
:100EB0009F918F912F910F900FBE0F901F901895BB
:100EC0008081F4CF1F920F920FB60F9211242F93AF
:100ED0003F938F939F93AF93BF9380919D01909188
:100EE0009E01A0919F01B091A0013091920123E059
:100EF000230F2D3758F50196A11DB11D20939201A6
:100F000080939D0190939E01A0939F01B093A001B7
:100F10008091930190919401A0919501B0919601D7
:100F20000196A11DB11D8093930190939401A0930C
:100F30009501B0939601BF91AF919F918F913F9191
:100F40002F910F900FBE0F901F90189526E8230F3A
:100F50000296A11DB11DD2CF1F920F920FB60F9214
:100F600011242F933F934F935F936F937F938F93AE
:100F70009F93AF93BF93EF93FF938091B900887FC6
:100F8000803609F44AC0F0F5883209F4A7C018F594
:100F9000803109F49BC0B8F4882309F4F9C0883083
:100FA00009F494C0FF91EF91BF91AF919F918F9100
:100FB0007F916F915F914F913F912F910F900FBE55
:100FC0000F901F901895883109F488C0803251F72E
:100FD0008093470214C0803409F49DC040F48033EC
:100FE000B9F38833F9F68093470285ECB0C08035B9
:100FF00009F485C0883509F496C0883499F60E94B2
:10100000D206D0CF883909F48CC038F5883729F05A
:1010100050F4883611F0803729F683E08093490236
:101020001092910157C0883809F47BC0803919F0BB
:10103000803809F0B7CF80919101803208F071C0FB
:10104000E091910181E08E0F809391018091BB002E
:10105000F0E0EF58FE4F80833DC0803B39F0E0F474
:10106000803A09F479C0883A09F09CCF84E08093F3
:1010700049021092700110926F01E0919901F09174
:101080009A01099580916F0181110FC081E08093D1
:101090006F0110924F0109C0803C09F4A6CF883C33
:1010A00009F4A3CF883B09F07DCFE091700181E086
:1010B0008E0F80937001F0E0E15BFE4F80818093A2
:1010C000BB009091700180916F0129C08091240232
:1010D0008093BB0085EC8093BC0064CF9091460266
:1010E00080914502981758F5E091460281E08E0FF5
:1010F00080934602F0E0EB5DFD4F8081E9CFE09107
:10110000460281E08E0F809346028091BB00F0E0A2
:10111000EB5DFD4F808390914602809145029817C8
:10112000C8F285E8D8CFE091460281E08E0F809327
:1011300046028091BB00F0E0EB5DFD4F8083809123
:10114000480281115CCF81E08093230284EA80937E
:10115000BC001092490226CF85EC8093BC0010920F
:10116000490280919101803230F4E0919101F0E0E8
:10117000EF58FE4F10826091910170E0E09197016D
:10118000F091980181E791E00995109291010ACFC1
:101190001092470234CFE3E7F2E01382128288EE26
:1011A00093E0A0E0B0E084839583A683B78324E036
:1011B00031E03183208325EC30E03587248724EC2F
:1011C00030E03787268720EC30E0318B208B21EC14
:1011D00030E0338B228B22EC30E0358B248B26ECF5
:1011E00030E0378B268B118E128E138E148EE0E139
:1011F000F3E01382128284839583A683B78386E10A
:1012000091E0918380830895CF93DF93CDB7DEB7CC
:10121000A1970FB6F894DEBF0FBECDBF789484B50A
:10122000826084BD84B5816084BD85B5826085BDE2
:1012300085B5816085BD80916E00816080936E0070
:101240001092810080918100826080938100809162
:101250008100816080938100809180008160809313
:1012600080008091B10084608093B1008091B000D3
:1012700081608093B00080917A00846080937A00CE
:1012800080917A00826080937A0080917A008160F8
:1012900080937A0080917A00806880937A0010921F
:1012A000C10010929C0110929B011092500210926A
:1012B00072020E94A90482E093E090939A018093C5
:1012C000990183E093E090939801809397018EEACF
:1012D0000E94710688EA0E9471068FE30E947106DF
:1012E00083ED0E94710680E00E94710680E40E94F6
:1012F000710681EA0E94710688EC0E9471068AEDEF
:101300000E94710682E10E94710681E80E947106C6
:101310008FE70E94710684EA0E94710686EA0E94A5
:10132000710685ED0E94710680E80E9471068DE8C5
:101330000E94710684E10E9471068FEA0E94710684
:10134000E0918302F091840282E08083E0917F0249
:10135000F09180021082E0918102F091820287E692
:10136000808310928B02E0918702F091880286E0E0
:101370008083E0918502F091860280818061808384
:10138000E0918502F0918602808188608083E091FF
:101390008502F0918602808180688083E0918502D9
:1013A000F091860280818F7D80831092A30110923C
:1013B000A2011092A10197E2292E91E0392E8E010F
:1013C0000F5F1F4F2AE0422E512C612C712C83E7B6
:1013D00092E00E946203181619060CF041C083E7E0
:1013E00092E00E9440038A3061F464E271E080E0A0
:1013F0000E948A061092A3011092A2011092A101EC
:10140000E6CF4091A1015091A2019A012F5F3F4F79
:101410003093A2012093A1014D555E4FFA018083C4
:101420002D553E4FF9011082E3EAF1E001900020D2
:10143000E9F7CF01845A91409F938F933F922F9267
:101440001F930F930E94BE0A63EA71E081E00E943D
:101450008A060F900F900F900F900F900F90B7CFBC
:101460008FB7F89420919D0130919E0140919F018A
:101470005091A0018FBF19A27E01F1E2EF0EF11C85
:10148000CA01B901A30192010E94960A605DF701A9
:1014900062937F01211531054105510589F7309788
:1014A00061F001900020E9F73197AF014E195F0913
:1014B000B70183E792E00E94040342E050E06AE251
:1014C00071E083E792E00E9404030E945D044B01F7
:1014D0005C0184E6C82ED12CE12CF12C0E945D0425
:1014E000681979098A099B09683E7340810591054D
:1014F000A8F3F1E0CF1AD108E108F10828EE820E36
:1015000023E0921EA11CB11CC114D104E104F1041A
:1015100029F780E090E0892B09F459CF0E946E03EF
:10152000882309F454CF0E94000051CFA1E21A2E63
:10153000AA1BBB1BFD010DC0AA1FBB1FEE1FFF1F77
:10154000A217B307E407F50720F0A21BB30BE40BC7
:10155000F50B661F771F881F991F1A9469F760950E
:101560007095809590959B01AC01BD01CF010895C8
:10157000EE0FFF1F0590F491E02D0994AEE0B0E06E
:10158000E4ECFAE00C946D0D0D891E8986E08C83E5
:101590001A8309838FEF9FE79E838D83AE01475E99
:1015A0005F4F6F89788DCE0101960E94E10A2F81ED
:1015B0003885020F131FF80110822E96E4E00C9478
:1015C000890DABE0B0E0E7EEFAE00C945F0D7C0132
:1015D0003B018A01FC0117821682838181FFC8C109
:1015E000CE0101965C01F7019381F30193FD859192
:1015F00093FF81913F01882309F453C1853239F467
:1016000093FD859193FF81913F01853229F4B701C4
:1016100090E00E94D10CE7CF912C212C312CFFE1DE
:10162000F31538F08B3211F190F4803209F18332E6
:1016300029F137FC3CC020ED280F2A3050F536FE4A
:1016400020C08AE0989E200D1124922E06C08D3273
:1016500091F0803371F7689430F8F30193FD859130
:1016600093FF81913F018111DACF21C0689431F855
:10167000689432F8F2CF689433F8EFCF689434F876
:10168000ECCFEAE02E9E200D1124222E689435F82E
:10169000E4CF8E3229F436FC04C1689436F8DDCFED
:1016A0008C3619F4689437F8D8CF8836B1F2982F71
:1016B0009F7D95549330E0F08336A1F18337C1F1DB
:1016C000833509F063C02801F2E04F0E511CF80188
:1016D000C080D180692D70E036FC02C06FEF7FEFD3
:1016E000C6010E94BB0C4C01689437F882010AC005
:1016F0000C5F1F4FFFE3F98388248394912C6501CD
:10170000E89437F833FE2DC0522C8114910471F502
:10171000552009F468CFB70180E290E00E94D10C17
:101720005A94F6CFF801808189830E5F1F4FE4CF72
:101730002801F2E04F0E511CF801C080D180692DC4
:1017400070E036FC02C06FEF7FEFC6010E94C60C4E
:101750004C018201D5CFB70180E290E00E94D10C0C
:101760002A942814190409F0B0F7CECFF60137FCFB
:10177000859137FE81916F01B70190E00E94D10CF5
:1017800051105A94F1E08F1A9108BFCF843619F0A6
:10179000893609F077C0F80137FE6BC0608171812E
:1017A000828193810C5F1F4FF32DFF763F2E97FFB1
:1017B00009C090958095709561957F4F8F4F9F4F91
:1017C000689437F82AE030E0A5010E94010DC82E88
:1017D000CA188C2C432C36FE0CC0E89440F8C9146F
:1017E00040F434FE05C032FC03C0F32DFE7E4F2EC4
:1017F000892C44FE95C0FE01EC0DF11D80818033E3
:1018000009F087C0242D297E422E842D8870582E01
:1018100043FC95C040FE8FC09C2C821418F42C0C05
:10182000922C981844FE91C0B70180E390E00E948A
:10183000D10C42FE09C088E790E041FE02C088E575
:1018400090E0B7010E94D10CC91408F48AC0CA9470
:10185000D12C9FEFC91AD90ACA0CDB1CF601829160
:101860006F01B70190E00E94D10CAC14BD04B1F738
:101870004FCF60817181072E000C880B990B0E5F92
:101880001F4F92CFD32CE894D4F82AE030E085376C
:1018900039F1232D297FD22E8F3601F148F4883576
:1018A000A9F0F701868197812B96E2E10C947B0DDC
:1018B000803749F08837A9F7D4FE02C06894D2F87F
:1018C00020E130E00DC06894D4F8F6CF34FE03C0B8
:1018D000822F8660D82E20E132E002C028E030E07E
:1018E000F801D7FE0FC060817181828193810C5F06
:1018F0001F4FA5010E94010DC82ECA183D2CE89467
:1019000037F867CF6081718190E080E00E5F1F4FF4
:10191000F0CF42FC02C0839478CF8394839475CF38
:10192000842D867809F471CFF6CFB70180E290E07C
:101930000E94D10C83948214C0F3512C73CF522C8B
:101940005818821408F46ECFF8CF842D867809F4E5
:101950007BCF8BE241FE80E247FC8DE2B70190E055
:1019600071CFB70180E390E00E94D10C9A946CCFC4
:101970008FEF9FEF99CFFC010590615070400110EF
:10198000D8F7809590958E0F9F1F0895FC016150A8
:10199000704001900110D8F7809590958E0F9F1F91
:1019A00008950F931F93CF93DF93182F092FEB0107
:1019B0008B8181FD09C01FEF0FEF812F902FDF91E9
:1019C000CF911F910F91089582FF14C02E813F8106
:1019D0008C819D81281739073CF4E881F981CF017A
:1019E00001969983888310838E819F8101969F83BE
:1019F0008E83E3CFE885F985812F0995892BA1F3A3
:101A0000DACFFA01AA27283051F1203181F1E89488
:101A10006F936E7F6E5F7F4F8F4F9F4FAF4FB1E0E1
:101A20003ED0B4E03CD0670F781F891F9A1FA11DDC
:101A3000680F791F8A1F911DA11D6A0F711D811DDD
:101A4000911DA11D20D009F468943F912AE0269FA2
:101A500011243019305D3193DEF6CF010895462F01
:101A60004770405D4193B3E00FD0C9F7F6CF462FE2
:101A70004F70405D4A3318F0495D31FD405241934B
:101A800002D0A9F7EACFB4E0A69597958795779508
:101A90006795BA95C9F700976105710508959B018F
:101AA000AC010A2E06945795479537952795BA9518
:101AB000C9F7620F731F841F951FA01D08952F92F1
:101AC0003F924F925F926F927F928F929F92AF92CE
:101AD000BF92CF92DF92EF92FF920F931F93CF931B
:101AE000DF93CDB7DEB7CA1BDB0B0FB6F894DEBFB2
:101AF0000FBECDBF09942A88398848885F846E84D8
:101B00007D848C849B84AA84B984C884DF80EE8021
:101B1000FD800C811B81AA81B981CE0FD11D0FB62A
:101B2000F894DEBF0FBECDBFED010895F894FFCF4E
:101B300000000000A40304033103F1036203400327
:101B40005403000000002606F9055506CF05F205EE
:0E1B5000DF05D0054C46002564000D0A00009C
:00000001FF
