:100000000C946B000C947D000C947D000C947D008E
:100010000C947D000C947D000C947D000C947D006C
:100020000C947D000C947D000C947D000C947D005C
:100030000C947D000C947D000C947D000C947D004C
:100040000C946B010C947D000C947D000C947D004D
:100050000C947D000C947D000C947D000C947D002C
:100060000C947D000C947D0005A84CCDB2D44EB903
:100070003836A9020C50B9918688083CA6AAAA2A4B
:10008000BE000000803F00000008000201000003E5
:100090000407000000000000000000000000250030
:1000A00028002B0000000000240027002A00040480
:1000B0000404040404040202020202020303030310
:1000C00003030102040810204080010204081020EC
:1000D00001020408102011241FBECFEFD8E0DEBFBC
:1000E000CDBF21E0A0E0B1E001C01D92A938B20768
:1000F000E1F70E94B5010C94BC040C94000090E060
:10010000FC01EE53FF4F249182559F4FFC018491D7
:10011000882399F090E0880F991FFC01EC55FF4F60
:10012000A591B491FC01E656FF4F859194918FB74C
:10013000F894EC91E22BEC938FBF089590E0FC01D2
:10014000EA57FF4F2491FC01EE53FF4F3491FC011D
:10015000E255FF4FE491EE23C9F0222339F023301A
:1001600001F1A8F4213019F1223029F1F0E0EE0F6D
:10017000FF1FE656FF4FA591B4918FB7F894EC910D
:10018000611126C030953E233C938FBF08952730E0
:10019000A9F02830C9F0243049F7809180008F7D84
:1001A00003C0809180008F7780938000DFCF84B57B
:1001B0008F7784BDDBCF84B58F7DFBCF8091B0007E
:1001C0008F778093B000D2CF8091B0008F7DF9CF30
:1001D0003E2BDACF1F93CF93DF93182FEB010E94B2
:1001E0007F00209739F460E0812FDF91CF911F913C
:1001F0000C949E00CF3FD10511F461E0F5CFE12FC3
:10020000F0E0EA57FF4FE491E33031F140F4E130A0
:10021000B1F0E230E1F0C038D1057CF7E4CFE7304F
:1002200029F1E83059F1E430B1F780918000806223
:1002300080938000D0938B00C0938A0004C084B563
:10024000806884BDC7BDDF91CF911F91089584B5AB
:10025000806284BDC8BDF7CF8091800080688093A4
:100260008000D0938900C0938800EDCF8091B000CA
:1002700080688093B000C093B300E5CF8091B00058
:1002800080628093B000C093B400DDCF3FB7F89494
:100290008091050190910601A0910701B09108019C
:1002A00026B5A89B05C02F3F19F00196A11DB11DD1
:1002B0003FBFBA2FA92F982F8827BC01CD01620F0D
:1002C000711D811D911D42E0660F771F881F991FC8
:1002D0004A95D1F708951F920F920FB60F921124ED
:1002E0002F933F938F939F93AF93BF93809101017F
:1002F00090910201A0910301B0910401309100019D
:1003000023E0230F2D3758F50196A11DB11D209331
:1003100000018093010190930201A0930301B09327
:1003200004018091050190910601A0910701B0910F
:1003300008010196A11DB11D80930501909306014E
:10034000A0930701B0930801BF91AF919F918F9146
:100350003F912F910F900FBE0F901F90189526E898
:10036000230F0296A11DB11DD2CF789484B582606F
:1003700084BD84B5816084BD85B5826085BD85B549
:10038000816085BD80916E00816080936E001092C7
:100390008100809181008260809381008091810042
:1003A00081608093810080918000816080938000D3
:1003B0008091B10084608093B1008091B000816031
:1003C0008093B00080917A00846080937A0080915D
:1003D0007A00826080937A0080917A0081608093B5
:1003E0007A0080917A00806880937A001092C10030
:1003F0008BE00E947F008AE00E947F0089E00E94DB
:100400007F0086E00E947F0009E011E0D0E0C0E0BC
:10041000BE010D2E000C880B990B0E9433032BEDAF
:100420003FE049EC50E40E94BF0320E030E040E0B0
:100430005CE30E94BF030E942C0420E030E04EEFFA
:1004400052E40E94BF0320E030E040E053E40E9409
:1004500096020E940203F80161938F012196C03831
:10046000D105B1F690E0E92E90E0F92E09E011E017
:10047000C0E2D0E0F80161918F01FE01EF77FF2724
:10048000E75FFE4FD080FE01B096EF77FF27E75F72
:10049000FE4FA080FE01E05CFF4FEF77FF27E75F94
:1004A000FE4FB08070E08BE00E94EA006D2D70E09E
:1004B0008AE00E94EA006A2D70E089E00E94EA006A
:1004C0006B2D70E086E00E94EA000E9446012B013D
:1004D0003C0184E6882E912CA12CB12C0E9446016F
:1004E0006419750986099709683E7340810591056D
:1004F000A8F3F1E08F1A9108A108B10828EE420E86
:1005000023E0521E611C711C81149104A104B104EA
:1005100029F72196C03AD10509F0ACCFE114F104D6
:1005200009F4A4CF0E940000A1CF5058BB27AA27EE
:100530000E94AD020C9485030E94770338F00E945C
:100540007E0320F039F49F3F19F426F40C947403D1
:100550000EF4E095E7FB0C946E03E92F0E949603DE
:1005600058F3BA17620773078407950720F079F4E8
:10057000A6F50C94B8030EF4E0950B2EBA2FA02D1F
:100580000B01B90190010C01CA01A0011124FF2740
:10059000591B99F0593F50F4503E68F11A16F0403B
:1005A000A22F232F342F4427585FF3CF469537953A
:1005B0002795A795F0405395C9F77EF41F16BA0BFF
:1005C000620B730B840BBAF09150A1F0FF0FBB1FAD
:1005D000661F771F881FC2F70EC0BA0F621F731FF6
:1005E000841F48F4879577956795B795F7959E3F53
:1005F00008F0B0CF9395880F08F09927EE0F9795E4
:10060000879508950E949E0388F09F5798F0B92F10
:100610009927B751B0F0E1F0660F771F881F991F37
:100620001AF0BA95C9F714C0B13091F00E94B8031E
:10063000B1E008950C94B803672F782F8827B85F2E
:1006400039F0B93FCCF3869577956795B395D9F78F
:100650003EF490958095709561957F4F8F4F9F4F99
:100660000895E89409C097FB3EF4909580957095A5
:1006700061957F4F8F4F9F4F9923A9F0F92F96E9EE
:10068000BB279395F695879577956795B795F11163
:10069000F8CFFAF4BB0F11F460FF1BC06F5F7F4F00
:1006A0008F4F9F4F16C0882311F096E911C0772312
:1006B00021F09EE8872F762F05C0662371F096E81B
:1006C000862F70E060E02AF09A95660F771F881FEA
:1006D000DAF7880F9695879597F9089597F99F67A8
:1006E00080E870E060E008959FEF80EC08950024BA
:1006F0000A941616170618060906089500240A9487
:1007000012161306140605060895092E0394000C0C
:1007100011F4882352F0BB0F40F4BF2B11F460FF9B
:1007200004C06F5F7F4F8F4F9F4F089557FD9058C4
:10073000440F551F59F05F3F71F04795880F97FBA5
:10074000991F61F09F3F79F087950895121613065F
:100750001406551FF2CF4695F1DF08C0161617068E
:100760001806991FF1CF86957105610508940895C3
:10077000E894BB2766277727CB0197F908950E9455
:10078000D2030C9485030E94770338F00E947E0305
:1007900020F0952311F00C946E030C947403112433
:1007A0000C94B9030E94960370F3959FC1F3950FC3
:1007B00050E0551F629FF001729FBB27F00DB11DE5
:1007C000639FAA27F00DB11DAA1F649F6627B00D75
:1007D000A11D661F829F2227B00DA11D621F739F5E
:1007E000B00DA11D621F839FA00D611D221F749F6C
:1007F0003327A00D611D231F849F600D211D822FB3
:10080000762F6A2F11249F5750409AF0F1F08823D9
:100810004AF0EE0FFF1FBB1F661F771F881F915006
:100820005040A9F79E3F510580F00C946E030C9444
:10083000B9035F3FE4F3983ED4F3869577956795C7
:10084000B795F795E7959F5FC1F7FE2B880F911D30
:100850009695879597F908959F930E9436040F9077
:1008600007FCEE5F0C945F040C9474030E949E03DB
:10087000D8F3E894E0E0BB279F57F0F02AED3FE083
:1008800049EC06C0EE0FBB0F661F771F881F28F0CC
:10089000B23A62077307840728F0B25A620B730BEF
:1008A000840BE3959A9572F7803830F49A95BB0FD4
:1008B000661F771F881FD2F790480C947504EF933A
:1008C000E0FF07C0A2EA2AED3FE049EC5FEB0E949F
:1008D000AD020E9485030F90039401FC9058E8E656
:1008E000F0E00C9481049F3F31F0915020F4879503
:1008F00077956795B795880F911D9695879597F988
:1009000008959F938F937F936F93FF93EF939B0132
:10091000AC010E94BF03EF91FF910E9495042F91BB
:100920003F914F915F910C94BF03DF93CF931F933F
:100930000F93FF92EF92DF927B018C01689406C0C7
:10094000DA2EEF010E94D203FE01E894A5912591D1
:10095000359145915591A6F3EF010E94AD02FE013C
:100960009701A801DA9469F7DF90EF90FF900F915B
:0C0970001F91CF91DF910895F894FFCF04
:00000001FF
