:100000000C946B000C947D000C947D000C947D008E
:100010000C947D000C947D000C947D000C947D006C
:100020000C947D000C947D000C947D000C947D005C
:100030000C947D000C947D000C947D000C947D004C
:100040000C9408010C947D000C947D000C947D00B0
:100050000C947D000C947D000C947D000C947D002C
:100060000C947D000C947D0005A84CCDB2D44EB903
:100070003836A9020C50B9918688083CA6AAAA2A4B
:10008000BE000000803F00000008000201000003E5
:100090000407000000000000000000000000250030
:1000A00028002B0000000000240027002A00040480
:1000B0000404040404040202020202020303030310
:1000C00003030102040810204080010204081020EC
:1000D00001020408102011241FBECFEFD8E0DEBFBC
:1000E000CDBF21E0A0E0B1E001C01D92A932B2076E
:1000F000E1F70E9452010C9478040C940000EDEC9E
:10010000F0E02491E9EBF0E08491882399F090E00D
:10011000880F991FFC01EC55FF4FA591B491FC018C
:10012000E656FF4F859194918FB7F894EC91E22BAE
:10013000EC938FBF0895E1E9F0E02491EDECF0E05D
:100140009491E9EBF0E0E491EE23C9F0222339F039
:10015000233001F1A8F4213019F1223029F1F0E027
:10016000EE0FFF1FE656FF4FA591B4912FB7F894FD
:10017000EC91811126C090959E239C932FBF0895EA
:100180002730A9F02830C9F0243049F720918000A9
:100190002F7D03C0209180002F7720938000DFCF38
:1001A00024B52F7724BDDBCF24B52F7DFBCF209145
:1001B000B0002F772093B000D2CF2091B0002F7DD8
:1001C000F9CF9E2BDACF3FB7F8948091050190913B
:1001D0000601A0910701B091080126B5A89B05C0B2
:1001E0002F3F19F00196A11DB11D3FBFBA2FA92FB6
:1001F000982F8827BC01CD01620F711D811D911DB3
:1002000042E0660F771F881F991F4A95D1F708951E
:100210001F920F920FB60F9211242F933F938F933B
:100220009F93AF93BF938091010190910201A091A0
:100230000301B09104013091000123E0230F2D3719
:1002400058F50196A11DB11D209300018093010175
:1002500090930201A0930301B093040180910501E2
:1002600090910601A0910701B09108010196A11D8E
:10027000B11D8093050190930601A0930701B093EF
:100280000801BF91AF919F918F913F912F910F9056
:100290000FBE0F901F90189526E8230F0296A11D00
:1002A000B11DD2CF789484B5826084BD84B581605D
:1002B00084BD85B5826085BD85B5816085BD809131
:1002C0006E00816080936E001092810080918100A9
:1002D00082608093810080918100816080938100A1
:1002E000809180008160809380008091B100846063
:1002F0008093B1008091B00081608093B0008091C4
:100300007A00846080937A0080917A008260809382
:100310007A0080917A00816080937A0080917A00DF
:10032000806880937A001092C1000E947F0009E0EB
:1003300011E0D0E0C0E0BE010D2E000C880B990B3F
:100340000E94EF022BED3FE049EC50E40E947B035A
:1003500020E030E040E05DE30E947B030E94E80380
:1003600020E030E04EEF52E40E947B0320E030E0DA
:1003700040E053E40E9452020E94BE02F8016193E1
:100380008F012196C032D105B1F609E211E091E961
:10039000892E90E0992E20E0A22E20E0B22EC9E016
:1003A000D1E0D990ED2CF12C0E947F00E114F104F2
:1003B00081F580E00E949B000E94E3002B013C013C
:1003C00084E6C82ED12CE12CF12C0E94E3006419A4
:1003D000750986099709683E734081059105A8F360
:1003E00021E0C21AD108E108F10888EE480E83E046
:1003F000581E611C711CC114D104E104F10429F7D9
:100400000C171D0771F6A114B10449F20E940000F7
:10041000C6CFFFEFEF16F10411F481E0CBCFF4016A
:100420008491833021F148F48130B9F08230D1F0E9
:10043000F0E8EF16F1048CF7BCCF873011F188306B
:1004400041F18430A9F78091800080628093800020
:10045000F0928B00E0928A00AFCF84B5806884BDB3
:10046000D7BCAACF84B5806284BDD8BCA5CF80910B
:100470008000806880938000F0928900E09288007C
:100480009BCF8091B00080688093B000D092B30081
:1004900093CF8091B00080628093B000D092B4007E
:1004A0008BCF5058BB27AA270E9469020C944103A6
:1004B0000E94330338F00E943A0320F039F49F3F42
:1004C00019F426F40C9430030EF4E095E7FB0C9439
:1004D0002A03E92F0E94520358F3BA1762077307E1
:1004E0008407950720F079F4A6F50C9474030EF4B4
:1004F000E0950B2EBA2FA02D0B01B90190010C0134
:10050000CA01A0011124FF27591B99F0593F50F44B
:10051000503E68F11A16F040A22F232F342F4427A3
:10052000585FF3CF469537952795A795F04053959B
:10053000C9F77EF41F16BA0B620B730B840BBAF06B
:100540009150A1F0FF0FBB1F661F771F881FC2F7D6
:100550000EC0BA0F621F731F841F48F487957795EA
:100560006795B795F7959E3F08F0B0CF9395880FA4
:1005700008F09927EE0F9795879508950E945A03E2
:1005800088F09F5798F0B92F9927B751B0F0E1F054
:10059000660F771F881F991F1AF0BA95C9F714C004
:1005A000B13091F00E947403B1E008950C9474038B
:1005B000672F782F8827B85F39F0B93FCCF386953D
:1005C00077956795B395D9F73EF49095809570959A
:1005D00061957F4F8F4F9F4F0895E89409C097FB17
:1005E0003EF490958095709561957F4F8F4F9F4F0A
:1005F0009923A9F0F92F96E9BB279395F69587954E
:1006000077956795B795F111F8CFFAF4BB0F11F410
:1006100060FF1BC06F5F7F4F8F4F9F4F16C08823B7
:1006200011F096E911C0772321F09EE8872F762FED
:1006300005C0662371F096E8862F70E060E02AF02E
:100640009A95660F771F881FDAF7880F969587951A
:1006500097F9089597F99F6780E870E060E0089542
:100660009FEF80EC089500240A94161617061806CA
:100670000906089500240A941216130614060506A6
:100680000895092E0394000C11F4882352F0BB0F37
:1006900040F4BF2B11F460FF04C06F5F7F4F8F4F9A
:1006A0009F4F089557FD9058440F551F59F05F3FD5
:1006B00071F04795880F97FB991F61F09F3F79F084
:1006C00087950895121613061406551FF2CF469506
:1006D000F1DF08C0161617061806991FF1CF869588
:1006E0007105610508940895E894BB27662777276C
:1006F000CB0197F908950E948E030C9441030E9448
:10070000330338F00E943A0320F0952311F00C9443
:100710002A030C94300311240C9475030E94520395
:1007200070F3959FC1F3950F50E0551F629FF00144
:10073000729FBB27F00DB11D639FAA27F00DB11D5D
:10074000AA1F649F6627B00DA11D661F829F2227E6
:10075000B00DA11D621F739FB00DA11D621F839F6D
:10076000A00D611D221F749F3327A00D611D231F43
:10077000849F600D211D822F762F6A2F11249F5791
:1007800050409AF0F1F088234AF0EE0FFF1FBB1F94
:10079000661F771F881F91505040A9F79E3F510553
:1007A00080F00C942A030C9475035F3FE4F3983EA9
:1007B000D4F3869577956795B795F795E7959F5FFD
:1007C000C1F7FE2B880F911D9695879597F908958F
:1007D0009F930E94F2030F9007FCEE5F0C941B04A2
:1007E0000C9430030E945A03D8F3E894E0E0BB274E
:1007F0009F57F0F02AED3FE049EC06C0EE0FBB0F2B
:10080000661F771F881F28F0B23A620773078407B4
:1008100028F0B25A620B730B840BE3959A9572F72A
:10082000803830F49A95BB0F661F771F881FD2F768
:1008300090480C943104EF93E0FF07C0A2EA2AED40
:100840003FE049EC5FEB0E9469020E9441030F9078
:10085000039401FC9058E8E6F0E00C943D049F3FBF
:1008600031F0915020F4879577956795B795880F6B
:10087000911D9695879597F908959F938F937F93F0
:100880006F93FF93EF939B01AC010E947B03EF9169
:10089000FF910E9451042F913F914F915F910C94D1
:1008A0007B03DF93CF931F930F93FF92EF92DF921F
:1008B0007B018C01689406C0DA2EEF010E948E0342
:1008C000FE01E894A5912591359145915591A6F3A6
:1008D000EF010E946902FE019701A801DA9469F70D
:1008E000DF90EF90FF900F911F91CF91DF910895CE
:0408F000F894FFCFAA
:00000001FF
